{
  "_format": "hh-sol-artifact-1",
  "contractName": "multiSign",
  "sourceName": "contracts/multuSignWallet.sol",
  "abi": [
    {
      "inputs": [],
      "stateMutability": "payable",
      "type": "constructor"
    },
    {
      "anonymous": false,
      "inputs": [
        {
          "indexed": false,
          "internalType": "uint256",
          "name": "id",
          "type": "uint256"
        }
      ],
      "name": "caseAdded",
      "type": "event"
    },
    {
      "anonymous": false,
      "inputs": [
        {
          "indexed": false,
          "internalType": "address",
          "name": "_from",
          "type": "address"
        },
        {
          "indexed": false,
          "internalType": "uint256",
          "name": "value",
          "type": "uint256"
        },
        {
          "indexed": false,
          "internalType": "bytes",
          "name": "_date",
          "type": "bytes"
        }
      ],
      "name": "received",
      "type": "event"
    },
    {
      "stateMutability": "payable",
      "type": "fallback"
    },
    {
      "inputs": [
        {
          "internalType": "address",
          "name": "_traget",
          "type": "address"
        },
        {
          "internalType": "uint256",
          "name": "_amount",
          "type": "uint256"
        }
      ],
      "name": "addCase",
      "outputs": [],
      "stateMutability": "nonpayable",
      "type": "function"
    },
    {
      "inputs": [
        {
          "internalType": "address",
          "name": "newMember",
          "type": "address"
        }
      ],
      "name": "addMemberCase",
      "outputs": [],
      "stateMutability": "nonpayable",
      "type": "function"
    },
    {
      "inputs": [
        {
          "internalType": "address",
          "name": "",
          "type": "address"
        },
        {
          "internalType": "uint256",
          "name": "",
          "type": "uint256"
        }
      ],
      "name": "checkConfirm",
      "outputs": [
        {
          "internalType": "bool",
          "name": "",
          "type": "bool"
        }
      ],
      "stateMutability": "view",
      "type": "function"
    },
    {
      "inputs": [],
      "name": "checkTotalBalance",
      "outputs": [
        {
          "internalType": "uint256",
          "name": "",
          "type": "uint256"
        }
      ],
      "stateMutability": "view",
      "type": "function"
    },
    {
      "inputs": [
        {
          "internalType": "uint256",
          "name": "_id",
          "type": "uint256"
        }
      ],
      "name": "confirm",
      "outputs": [],
      "stateMutability": "nonpayable",
      "type": "function"
    },
    {
      "inputs": [
        {
          "internalType": "address",
          "name": "deleted",
          "type": "address"
        }
      ],
      "name": "deleteMemberCase",
      "outputs": [],
      "stateMutability": "nonpayable",
      "type": "function"
    },
    {
      "inputs": [
        {
          "internalType": "uint256",
          "name": "_id",
          "type": "uint256"
        }
      ],
      "name": "execute",
      "outputs": [],
      "stateMutability": "nonpayable",
      "type": "function"
    },
    {
      "inputs": [
        {
          "internalType": "address",
          "name": "",
          "type": "address"
        }
      ],
      "name": "isMenber",
      "outputs": [
        {
          "internalType": "bool",
          "name": "",
          "type": "bool"
        }
      ],
      "stateMutability": "view",
      "type": "function"
    },
    {
      "inputs": [],
      "name": "memberCount",
      "outputs": [
        {
          "internalType": "uint256",
          "name": "",
          "type": "uint256"
        }
      ],
      "stateMutability": "view",
      "type": "function"
    },
    {
      "inputs": [
        {
          "internalType": "uint256",
          "name": "_id",
          "type": "uint256"
        }
      ],
      "name": "revoke",
      "outputs": [],
      "stateMutability": "nonpayable",
      "type": "function"
    },
    {
      "inputs": [
        {
          "internalType": "uint256",
          "name": "",
          "type": "uint256"
        }
      ],
      "name": "theCases",
      "outputs": [
        {
          "internalType": "uint256",
          "name": "id",
          "type": "uint256"
        },
        {
          "internalType": "address",
          "name": "target",
          "type": "address"
        },
        {
          "internalType": "uint256",
          "name": "amount",
          "type": "uint256"
        },
        {
          "internalType": "uint256",
          "name": "agree",
          "type": "uint256"
        },
        {
          "internalType": "bool",
          "name": "done",
          "type": "bool"
        }
      ],
      "stateMutability": "view",
      "type": "function"
    },
    {
      "stateMutability": "payable",
      "type": "receive"
    }
  ],
  "bytecode": "0x608060405260016000803373ffffffffffffffffffffffffffffffffffffffff1673ffffffffffffffffffffffffffffffffffffffff16815260200190815260200160002060006101000a81548160ff021916908315150217905550600160048190555061238e806100726000396000f3fe6080604052600436106100a05760003560e01c8063ba0179b511610064578063ba0179b514610207578063d0d20c2814610230578063dcb891d21461026d578063e12158fc14610296578063fe0d94c1146102d3578063fe9882da146102fc576100e0565b8063116827221461012057806311aee3801461014957806320c5429b14610174578063385ea69e1461019d57806354169930146101de576100e0565b366100e0577f75fd880d39c1daf53b6547ab6cb59451fc6452d27caa90e5b6649dd8293b9eed33346040516100d6929190611f59565b60405180910390a1005b7f75fd880d39c1daf53b6547ab6cb59451fc6452d27caa90e5b6649dd8293b9eed33346000366040516101169493929190611f19565b60405180910390a1005b34801561012c57600080fd5b5061014760048036038101906101429190611af4565b610327565b005b34801561015557600080fd5b5061015e6105ab565b60405161016b9190612130565b60405180910390f35b34801561018057600080fd5b5061019b60048036038101906101969190611b30565b6105b1565b005b3480156101a957600080fd5b506101c460048036038101906101bf9190611b30565b610853565b6040516101d595949392919061214b565b60405180910390f35b3480156101ea57600080fd5b5061020560048036038101906102009190611acb565b6108c6565b005b34801561021357600080fd5b5061022e60048036038101906102299190611b30565b610c14565b005b34801561023c57600080fd5b5061025760048036038101906102529190611acb565b610eb5565b6040516102649190611f95565b60405180910390f35b34801561027957600080fd5b50610294600480360381019061028f9190611acb565b610ed5565b005b3480156102a257600080fd5b506102bd60048036038101906102b89190611af4565b611293565b6040516102ca9190611f95565b60405180910390f35b3480156102df57600080fd5b506102fa60048036038101906102f59190611b30565b6112c2565b005b34801561030857600080fd5b50610311611a99565b60405161031e9190612130565b60405180910390f35b600115156000803373ffffffffffffffffffffffffffffffffffffffff1673ffffffffffffffffffffffffffffffffffffffff16815260200190815260200160002060009054906101000a900460ff161515146103b9576040517f08c379a00000000000000000000000000000000000000000000000000000000081526004016103b0906120b0565b60405180910390fd5b600081116103fc576040517f08c379a00000000000000000000000000000000000000000000000000000000081526004016103f390612010565b60405180910390fd5b600073ffffffffffffffffffffffffffffffffffffffff168273ffffffffffffffffffffffffffffffffffffffff16141561046c576040517f08c379a000000000000000000000000000000000000000000000000000000000815260040161046390612050565b60405180910390fd5b6000600380549050905060006040518060a001604052808381526020018573ffffffffffffffffffffffffffffffffffffffff1681526020018481526020016000815260200160001515815250905060038190806001815401808255809150506001900390600052602060002090600502016000909190919091506000820151816000015560208201518160010160006101000a81548173ffffffffffffffffffffffffffffffffffffffff021916908373ffffffffffffffffffffffffffffffffffffffff160217905550604082015181600201556060820151816003015560808201518160040160006101000a81548160ff02191690831515021790555050507fcd66dd82cacf00455cd02a721d9610bb62a53f9e0a2e429196d606ed0a7230838260405161059d9190612130565b60405180910390a150505050565b60045481565b600115156000803373ffffffffffffffffffffffffffffffffffffffff1673ffffffffffffffffffffffffffffffffffffffff16815260200190815260200160002060009054906101000a900460ff16151514610643576040517f08c379a000000000000000000000000000000000000000000000000000000000815260040161063a906120b0565b60405180910390fd5b6000151560038281548110610681577f4e487b7100000000000000000000000000000000000000000000000000000000600052603260045260246000fd5b906000526020600020906005020160040160009054906101000a900460ff161515146106e2576040517f08c379a00000000000000000000000000000000000000000000000000000000081526004016106d990612110565b60405180910390fd5b60011515600160003373ffffffffffffffffffffffffffffffffffffffff1673ffffffffffffffffffffffffffffffffffffffff168152602001908152602001600020600083815260200190815260200160002060009054906101000a900460ff16151514610786576040517f08c379a000000000000000000000000000000000000000000000000000000000815260040161077d90611fd0565b60405180910390fd5b6000600160003373ffffffffffffffffffffffffffffffffffffffff1673ffffffffffffffffffffffffffffffffffffffff168152602001908152602001600020600083815260200190815260200160002060006101000a81548160ff02191690831515021790555060038181548110610829577f4e487b7100000000000000000000000000000000000000000000000000000000600052603260045260246000fd5b9060005260206000209060050201600301600081548092919061084b90612248565b919050555050565b6003818154811061086357600080fd5b90600052602060002090600502016000915090508060000154908060010160009054906101000a900473ffffffffffffffffffffffffffffffffffffffff16908060020154908060030154908060040160009054906101000a900460ff16905085565b600115156000803373ffffffffffffffffffffffffffffffffffffffff1673ffffffffffffffffffffffffffffffffffffffff16815260200190815260200160002060009054906101000a900460ff16151514610958576040517f08c379a000000000000000000000000000000000000000000000000000000000815260040161094f906120b0565b60405180910390fd5b600115156000808373ffffffffffffffffffffffffffffffffffffffff1673ffffffffffffffffffffffffffffffffffffffff16815260200190815260200160002060009054906101000a900460ff161515146109ea576040517f08c379a00000000000000000000000000000000000000000000000000000000081526004016109e190611ff0565b60405180910390fd5b60001515600260008373ffffffffffffffffffffffffffffffffffffffff1673ffffffffffffffffffffffffffffffffffffffff16815260200190815260200160002060009054906101000a900460ff16151514610a7d576040517f08c379a0000000000000000000000000000000000000000000000000000000008152600401610a7490612090565b60405180910390fd5b6001600260008373ffffffffffffffffffffffffffffffffffffffff1673ffffffffffffffffffffffffffffffffffffffff16815260200190815260200160002060006101000a81548160ff0219169083151502179055506000600380549050905060006040518060a001604052808381526020018473ffffffffffffffffffffffffffffffffffffffff168152602001600081526020016000815260200160001515815250905060038190806001815401808255809150506001900390600052602060002090600502016000909190919091506000820151816000015560208201518160010160006101000a81548173ffffffffffffffffffffffffffffffffffffffff021916908373ffffffffffffffffffffffffffffffffffffffff160217905550604082015181600201556060820151816003015560808201518160040160006101000a81548160ff02191690831515021790555050507fcd66dd82cacf00455cd02a721d9610bb62a53f9e0a2e429196d606ed0a72308382604051610c079190612130565b60405180910390a1505050565b600115156000803373ffffffffffffffffffffffffffffffffffffffff1673ffffffffffffffffffffffffffffffffffffffff16815260200190815260200160002060009054906101000a900460ff16151514610ca6576040517f08c379a0000000000000000000000000000000000000000000000000000000008152600401610c9d906120b0565b60405180910390fd5b6000151560038281548110610ce4577f4e487b7100000000000000000000000000000000000000000000000000000000600052603260045260246000fd5b906000526020600020906005020160040160009054906101000a900460ff16151514610d45576040517f08c379a0000000000000000000000000000000000000000000000000000000008152600401610d3c90612110565b60405180910390fd5b60001515600160003373ffffffffffffffffffffffffffffffffffffffff1673ffffffffffffffffffffffffffffffffffffffff168152602001908152602001600020600083815260200190815260200160002060009054906101000a900460ff16151514610de9576040517f08c379a0000000000000000000000000000000000000000000000000000000008152600401610de090612070565b60405180910390fd5b60018060003373ffffffffffffffffffffffffffffffffffffffff1673ffffffffffffffffffffffffffffffffffffffff168152602001908152602001600020600083815260200190815260200160002060006101000a81548160ff02191690831515021790555060038181548110610e8b577f4e487b7100000000000000000000000000000000000000000000000000000000600052603260045260246000fd5b90600052602060002090600502016003016000815480929190610ead90612272565b919050555050565b60006020528060005260406000206000915054906101000a900460ff1681565b600115156000803373ffffffffffffffffffffffffffffffffffffffff1673ffffffffffffffffffffffffffffffffffffffff16815260200190815260200160002060009054906101000a900460ff16151514610f67576040517f08c379a0000000000000000000000000000000000000000000000000000000008152600401610f5e906120b0565b60405180910390fd5b600073ffffffffffffffffffffffffffffffffffffffff168173ffffffffffffffffffffffffffffffffffffffff161415610fd7576040517f08c379a0000000000000000000000000000000000000000000000000000000008152600401610fce90612050565b60405180910390fd5b600015156000808373ffffffffffffffffffffffffffffffffffffffff1673ffffffffffffffffffffffffffffffffffffffff16815260200190815260200160002060009054906101000a900460ff16151514611069576040517f08c379a0000000000000000000000000000000000000000000000000000000008152600401611060906120f0565b60405180910390fd5b60001515600260008373ffffffffffffffffffffffffffffffffffffffff1673ffffffffffffffffffffffffffffffffffffffff16815260200190815260200160002060009054906101000a900460ff161515146110fc576040517f08c379a00000000000000000000000000000000000000000000000000000000081526004016110f390612030565b60405180910390fd5b6001600260008373ffffffffffffffffffffffffffffffffffffffff1673ffffffffffffffffffffffffffffffffffffffff16815260200190815260200160002060006101000a81548160ff0219169083151502179055506000600380549050905060006040518060a001604052808381526020018473ffffffffffffffffffffffffffffffffffffffff168152602001600081526020016000815260200160001515815250905060038190806001815401808255809150506001900390600052602060002090600502016000909190919091506000820151816000015560208201518160010160006101000a81548173ffffffffffffffffffffffffffffffffffffffff021916908373ffffffffffffffffffffffffffffffffffffffff160217905550604082015181600201556060820151816003015560808201518160040160006101000a81548160ff02191690831515021790555050507fcd66dd82cacf00455cd02a721d9610bb62a53f9e0a2e429196d606ed0a723083826040516112869190612130565b60405180910390a1505050565b60016020528160005260406000206020528060005260406000206000915091509054906101000a900460ff1681565b600115156000803373ffffffffffffffffffffffffffffffffffffffff1673ffffffffffffffffffffffffffffffffffffffff16815260200190815260200160002060009054906101000a900460ff16151514611354576040517f08c379a000000000000000000000000000000000000000000000000000000000815260040161134b906120b0565b60405180910390fd5b6000151560038281548110611392577f4e487b7100000000000000000000000000000000000000000000000000000000600052603260045260246000fd5b906000526020600020906005020160040160009054906101000a900460ff161515146113f3576040517f08c379a00000000000000000000000000000000000000000000000000000000081526004016113ea90612110565b60405180910390fd5b600260045461140291906121c0565b6003828154811061143c577f4e487b7100000000000000000000000000000000000000000000000000000000600052603260045260246000fd5b906000526020600020906005020160030154101561148f576040517f08c379a000000000000000000000000000000000000000000000000000000000815260040161148690611fb0565b60405180910390fd5b6000600382815481106114cb577f4e487b7100000000000000000000000000000000000000000000000000000000600052603260045260246000fd5b906000526020600020906005020160020154146116485760016003828154811061151e577f4e487b7100000000000000000000000000000000000000000000000000000000600052603260045260246000fd5b906000526020600020906005020160040160006101000a81548160ff02191690831515021790555060038181548110611580577f4e487b7100000000000000000000000000000000000000000000000000000000600052603260045260246000fd5b906000526020600020906005020160010160009054906101000a900473ffffffffffffffffffffffffffffffffffffffff1673ffffffffffffffffffffffffffffffffffffffff166108fc60038381548110611605577f4e487b7100000000000000000000000000000000000000000000000000000000600052603260045260246000fd5b9060005260206000209060050201600201549081150290604051600060405180830381858888f19350505050158015611642573d6000803e3d6000fd5b50611a96565b6000151560008060038481548110611689577f4e487b7100000000000000000000000000000000000000000000000000000000600052603260045260246000fd5b906000526020600020906005020160010160009054906101000a900473ffffffffffffffffffffffffffffffffffffffff1673ffffffffffffffffffffffffffffffffffffffff1673ffffffffffffffffffffffffffffffffffffffff16815260200190815260200160002060009054906101000a900460ff161515141561184e5760016000806003848154811061174a577f4e487b7100000000000000000000000000000000000000000000000000000000600052603260045260246000fd5b906000526020600020906005020160010160009054906101000a900473ffffffffffffffffffffffffffffffffffffffff1673ffffffffffffffffffffffffffffffffffffffff1673ffffffffffffffffffffffffffffffffffffffff16815260200190815260200160002060006101000a81548160ff021916908315150217905550600460008154809291906117e090612272565b9190505550600160038281548110611821577f4e487b7100000000000000000000000000000000000000000000000000000000600052603260045260246000fd5b906000526020600020906005020160040160006101000a81548160ff0219169083151502179055506119d2565b60008060006003848154811061188d577f4e487b7100000000000000000000000000000000000000000000000000000000600052603260045260246000fd5b906000526020600020906005020160010160009054906101000a900473ffffffffffffffffffffffffffffffffffffffff1673ffffffffffffffffffffffffffffffffffffffff1673ffffffffffffffffffffffffffffffffffffffff16815260200190815260200160002060006101000a81548160ff0219169083151502179055506004600081548092919061192390612248565b9190505550600160038281548110611964577f4e487b7100000000000000000000000000000000000000000000000000000000600052603260045260246000fd5b906000526020600020906005020160040160006101000a81548160ff0219169083151502179055506001600454116119d1576040517f08c379a00000000000000000000000000000000000000000000000000000000081526004016119c8906120d0565b60405180910390fd5b5b60006002600060038481548110611a12577f4e487b7100000000000000000000000000000000000000000000000000000000600052603260045260246000fd5b906000526020600020906005020160010160009054906101000a900473ffffffffffffffffffffffffffffffffffffffff1673ffffffffffffffffffffffffffffffffffffffff1673ffffffffffffffffffffffffffffffffffffffff16815260200190815260200160002060006101000a81548160ff0219169083151502179055505b50565b600047905090565b600081359050611ab08161232a565b92915050565b600081359050611ac581612341565b92915050565b600060208284031215611add57600080fd5b6000611aeb84828501611aa1565b91505092915050565b60008060408385031215611b0757600080fd5b6000611b1585828601611aa1565b9250506020611b2685828601611ab6565b9150509250929050565b600060208284031215611b4257600080fd5b6000611b5084828501611ab6565b91505092915050565b611b62816121f1565b82525050565b611b7181612203565b82525050565b6000611b83838561219e565b9350611b90838584612239565b611b9983612319565b840190509392505050565b6000611bb16011836121af565b91507f6e6f7420656e6f756768742061677265650000000000000000000000000000006000830152602082019050919050565b6000611bf16015836121af565b91507f796f7520686176656e277420636f6e6669726d656400000000000000000000006000830152602082019050919050565b6000611c31601e836121af565b91507f73656c65637465642061646472657373206973206e6f74206d656d62657200006000830152602082019050919050565b6000611c71600d836121af565b91507f696e76616c69642076616c7565000000000000000000000000000000000000006000830152602082019050919050565b6000611cb16028836121af565b91507f63616e206e6f742070726f706f736520616464696e672073616d652070656f7060008301527f6c652074776963650000000000000000000000000000000000000000000000006020830152604082019050919050565b6000611d17600f836121af565b91507f696e76616c6964206164647265737300000000000000000000000000000000006000830152602082019050919050565b6000611d576015836121af565b91507f796f7520616c726561647920636f6e6669726d656400000000000000000000006000830152602082019050919050565b6000611d97602a836121af565b91507f63616e206e6f742070726f706f73652064656c6574696e672073616d6520706560008301527f6f706c65207477696365000000000000000000000000000000000000000000006020830152604082019050919050565b6000611dfd6013836121af565b91507f796f7520617265206e6f74206d656d6265722e000000000000000000000000006000830152602082019050919050565b6000611e3d601e836121af565b91507f6d656d626572732063616e206e6f74206265206c657373207468616e203200006000830152602082019050919050565b6000611e7d60008361219e565b9150600082019050919050565b6000611e976012836121af565b91507f616c7265616479206973206d656d6265722e00000000000000000000000000006000830152602082019050919050565b6000611ed76011836121af565b91507f616c72656164792065786563757465642e0000000000000000000000000000006000830152602082019050919050565b611f138161222f565b82525050565b6000606082019050611f2e6000830187611b59565b611f3b6020830186611f0a565b8181036040830152611f4e818486611b77565b905095945050505050565b6000606082019050611f6e6000830185611b59565b611f7b6020830184611f0a565b8181036040830152611f8c81611e70565b90509392505050565b6000602082019050611faa6000830184611b68565b92915050565b60006020820190508181036000830152611fc981611ba4565b9050919050565b60006020820190508181036000830152611fe981611be4565b9050919050565b6000602082019050818103600083015261200981611c24565b9050919050565b6000602082019050818103600083015261202981611c64565b9050919050565b6000602082019050818103600083015261204981611ca4565b9050919050565b6000602082019050818103600083015261206981611d0a565b9050919050565b6000602082019050818103600083015261208981611d4a565b9050919050565b600060208201905081810360008301526120a981611d8a565b9050919050565b600060208201905081810360008301526120c981611df0565b9050919050565b600060208201905081810360008301526120e981611e30565b9050919050565b6000602082019050818103600083015261210981611e8a565b9050919050565b6000602082019050818103600083015261212981611eca565b9050919050565b60006020820190506121456000830184611f0a565b92915050565b600060a0820190506121606000830188611f0a565b61216d6020830187611b59565b61217a6040830186611f0a565b6121876060830185611f0a565b6121946080830184611b68565b9695505050505050565b600082825260208201905092915050565b600082825260208201905092915050565b60006121cb8261222f565b91506121d68361222f565b9250826121e6576121e56122ea565b5b828204905092915050565b60006121fc8261220f565b9050919050565b60008115159050919050565b600073ffffffffffffffffffffffffffffffffffffffff82169050919050565b6000819050919050565b82818337600083830152505050565b60006122538261222f565b91506000821415612267576122666122bb565b5b600182039050919050565b600061227d8261222f565b91507fffffffffffffffffffffffffffffffffffffffffffffffffffffffffffffffff8214156122b0576122af6122bb565b5b600182019050919050565b7f4e487b7100000000000000000000000000000000000000000000000000000000600052601160045260246000fd5b7f4e487b7100000000000000000000000000000000000000000000000000000000600052601260045260246000fd5b6000601f19601f8301169050919050565b612333816121f1565b811461233e57600080fd5b50565b61234a8161222f565b811461235557600080fd5b5056fea2646970667358221220c15d52e49c1c36aa95bec85cacadfe382daf099d21a81adb5d16b6d8c74ae9a364736f6c63430008000033",
  "linkReferences": {},
  "deployedLinkReferences": {}
}